{
  "contractName": "Transactions",
  "abi": [
    {
      "anonymous": false,
      "inputs": [
        {
          "indexed": false,
          "internalType": "address",
          "name": "sender",
          "type": "address"
        },
        {
          "indexed": false,
          "internalType": "address",
          "name": "receiver",
          "type": "address"
        },
        {
          "indexed": false,
          "internalType": "uint256",
          "name": "value",
          "type": "uint256"
        },
        {
          "indexed": false,
          "internalType": "string",
          "name": "message",
          "type": "string"
        },
        {
          "indexed": false,
          "internalType": "string",
          "name": "keyword",
          "type": "string"
        },
        {
          "indexed": false,
          "internalType": "uint256",
          "name": "timestamp",
          "type": "uint256"
        }
      ],
      "name": "Transfer",
      "type": "event"
    },
    {
      "inputs": [
        {
          "internalType": "uint256",
          "name": "",
          "type": "uint256"
        }
      ],
      "name": "transactionsList",
      "outputs": [
        {
          "internalType": "uint256",
          "name": "id",
          "type": "uint256"
        },
        {
          "internalType": "address",
          "name": "sender",
          "type": "address"
        },
        {
          "internalType": "address",
          "name": "receiver",
          "type": "address"
        },
        {
          "internalType": "uint256",
          "name": "value",
          "type": "uint256"
        },
        {
          "internalType": "string",
          "name": "message",
          "type": "string"
        },
        {
          "internalType": "string",
          "name": "keyword",
          "type": "string"
        },
        {
          "internalType": "uint256",
          "name": "timestamp",
          "type": "uint256"
        }
      ],
      "stateMutability": "view",
      "type": "function",
      "constant": true
    },
    {
      "inputs": [
        {
          "internalType": "address",
          "name": "_receiver",
          "type": "address"
        },
        {
          "internalType": "uint256",
          "name": "_value",
          "type": "uint256"
        },
        {
          "internalType": "string",
          "name": "_message",
          "type": "string"
        },
        {
          "internalType": "string",
          "name": "_keyword",
          "type": "string"
        }
      ],
      "name": "addTransaction",
      "outputs": [],
      "stateMutability": "nonpayable",
      "type": "function"
    },
    {
      "inputs": [],
      "name": "allTransactionsList",
      "outputs": [
        {
          "components": [
            {
              "internalType": "uint256",
              "name": "id",
              "type": "uint256"
            },
            {
              "internalType": "address",
              "name": "sender",
              "type": "address"
            },
            {
              "internalType": "address",
              "name": "receiver",
              "type": "address"
            },
            {
              "internalType": "uint256",
              "name": "value",
              "type": "uint256"
            },
            {
              "internalType": "string",
              "name": "message",
              "type": "string"
            },
            {
              "internalType": "string",
              "name": "keyword",
              "type": "string"
            },
            {
              "internalType": "uint256",
              "name": "timestamp",
              "type": "uint256"
            }
          ],
          "internalType": "struct Transactions.Transaction[]",
          "name": "",
          "type": "tuple[]"
        }
      ],
      "stateMutability": "view",
      "type": "function",
      "constant": true
    },
    {
      "inputs": [],
      "name": "totalTransactionCount",
      "outputs": [
        {
          "internalType": "uint256",
          "name": "",
          "type": "uint256"
        }
      ],
      "stateMutability": "view",
      "type": "function",
      "constant": true
    }
  ],
  "bytecode": "0x60806040526000805534801561001457600080fd5b50611073806100246000396000f3fe608060405234801561001057600080fd5b506004361061004c5760003560e01c806325e623c514610051578063466b7fca1461006f5780636d1b6bb11461008d578063e598c340146100a9575b600080fd5b6100596100df565b60405161006691906106b4565b60405180910390f35b6100776100e8565b6040516100849190610914565b60405180910390f35b6100a760048036038101906100a29190610ad7565b610335565b005b6100c360048036038101906100be9190610b76565b6104f9565b6040516100d69796959493929190610bfc565b60405180910390f35b60008054905090565b60606001805480602002602001604051908101604052809291908181526020016000905b8282101561032c57838290600052602060002090600702016040518060e0016040529081600082015481526020016001820160009054906101000a900473ffffffffffffffffffffffffffffffffffffffff1673ffffffffffffffffffffffffffffffffffffffff1673ffffffffffffffffffffffffffffffffffffffff1681526020016002820160009054906101000a900473ffffffffffffffffffffffffffffffffffffffff1673ffffffffffffffffffffffffffffffffffffffff1673ffffffffffffffffffffffffffffffffffffffff168152602001600382015481526020016004820180546101ff90610ca8565b80601f016020809104026020016040519081016040528092919081815260200182805461022b90610ca8565b80156102785780601f1061024d57610100808354040283529160200191610278565b820191906000526020600020905b81548152906001019060200180831161025b57829003601f168201915b5050505050815260200160058201805461029190610ca8565b80601f01602080910402602001604051908101604052809291908181526020018280546102bd90610ca8565b801561030a5780601f106102df5761010080835404028352916020019161030a565b820191906000526020600020905b8154815290600101906020018083116102ed57829003601f168201915b505050505081526020016006820154815250508152602001906001019061010c565b50505050905090565b60008081548092919061034790610d08565b919050555060016040518060e0016040528060005481526020013373ffffffffffffffffffffffffffffffffffffffff1681526020018673ffffffffffffffffffffffffffffffffffffffff1681526020018581526020018481526020018381526020014281525090806001815401808255809150506001900390600052602060002090600702016000909190919091506000820151816000015560208201518160010160006101000a81548173ffffffffffffffffffffffffffffffffffffffff021916908373ffffffffffffffffffffffffffffffffffffffff16021790555060408201518160020160006101000a81548173ffffffffffffffffffffffffffffffffffffffff021916908373ffffffffffffffffffffffffffffffffffffffff16021790555060608201518160030155608082015181600401908161048f9190610efc565b5060a08201518160050190816104a59190610efc565b5060c0820151816006015550507f5e245fe3ab1aa0e8ad77928e6d608e234861c6f4cc61f42cdb647db3f4f3ca463385858585426040516104eb96959493929190610fce565b60405180910390a150505050565b6001818154811061050957600080fd5b90600052602060002090600702016000915090508060000154908060010160009054906101000a900473ffffffffffffffffffffffffffffffffffffffff16908060020160009054906101000a900473ffffffffffffffffffffffffffffffffffffffff169080600301549080600401805461058490610ca8565b80601f01602080910402602001604051908101604052809291908181526020018280546105b090610ca8565b80156105fd5780601f106105d2576101008083540402835291602001916105fd565b820191906000526020600020905b8154815290600101906020018083116105e057829003601f168201915b50505050509080600501805461061290610ca8565b80601f016020809104026020016040519081016040528092919081815260200182805461063e90610ca8565b801561068b5780601f106106605761010080835404028352916020019161068b565b820191906000526020600020905b81548152906001019060200180831161066e57829003601f168201915b5050505050908060060154905087565b6000819050919050565b6106ae8161069b565b82525050565b60006020820190506106c960008301846106a5565b92915050565b600081519050919050565b600082825260208201905092915050565b6000819050602082019050919050565b6107048161069b565b82525050565b600073ffffffffffffffffffffffffffffffffffffffff82169050919050565b60006107358261070a565b9050919050565b6107458161072a565b82525050565b600081519050919050565b600082825260208201905092915050565b60005b8381101561078557808201518184015260208101905061076a565b60008484015250505050565b6000601f19601f8301169050919050565b60006107ad8261074b565b6107b78185610756565b93506107c7818560208601610767565b6107d081610791565b840191505092915050565b600060e0830160008301516107f360008601826106fb565b506020830151610806602086018261073c565b506040830151610819604086018261073c565b50606083015161082c60608601826106fb565b506080830151848203608086015261084482826107a2565b91505060a083015184820360a086015261085e82826107a2565b91505060c083015161087360c08601826106fb565b508091505092915050565b600061088a83836107db565b905092915050565b6000602082019050919050565b60006108aa826106cf565b6108b481856106da565b9350836020820285016108c6856106eb565b8060005b8581101561090257848403895281516108e3858261087e565b94506108ee83610892565b925060208a019950506001810190506108ca565b50829750879550505050505092915050565b6000602082019050818103600083015261092e818461089f565b905092915050565b6000604051905090565b600080fd5b600080fd5b6109538161072a565b811461095e57600080fd5b50565b6000813590506109708161094a565b92915050565b61097f8161069b565b811461098a57600080fd5b50565b60008135905061099c81610976565b92915050565b600080fd5b600080fd5b7f4e487b7100000000000000000000000000000000000000000000000000000000600052604160045260246000fd5b6109e482610791565b810181811067ffffffffffffffff82111715610a0357610a026109ac565b5b80604052505050565b6000610a16610936565b9050610a2282826109db565b919050565b600067ffffffffffffffff821115610a4257610a416109ac565b5b610a4b82610791565b9050602081019050919050565b82818337600083830152505050565b6000610a7a610a7584610a27565b610a0c565b905082815260208101848484011115610a9657610a956109a7565b5b610aa1848285610a58565b509392505050565b600082601f830112610abe57610abd6109a2565b5b8135610ace848260208601610a67565b91505092915050565b60008060008060808587031215610af157610af0610940565b5b6000610aff87828801610961565b9450506020610b108782880161098d565b935050604085013567ffffffffffffffff811115610b3157610b30610945565b5b610b3d87828801610aa9565b925050606085013567ffffffffffffffff811115610b5e57610b5d610945565b5b610b6a87828801610aa9565b91505092959194509250565b600060208284031215610b8c57610b8b610940565b5b6000610b9a8482850161098d565b91505092915050565b610bac8161072a565b82525050565b600082825260208201905092915050565b6000610bce8261074b565b610bd88185610bb2565b9350610be8818560208601610767565b610bf181610791565b840191505092915050565b600060e082019050610c11600083018a6106a5565b610c1e6020830189610ba3565b610c2b6040830188610ba3565b610c3860608301876106a5565b8181036080830152610c4a8186610bc3565b905081810360a0830152610c5e8185610bc3565b9050610c6d60c08301846106a5565b98975050505050505050565b7f4e487b7100000000000000000000000000000000000000000000000000000000600052602260045260246000fd5b60006002820490506001821680610cc057607f821691505b602082108103610cd357610cd2610c79565b5b50919050565b7f4e487b7100000000000000000000000000000000000000000000000000000000600052601160045260246000fd5b6000610d138261069b565b91507fffffffffffffffffffffffffffffffffffffffffffffffffffffffffffffffff8203610d4557610d44610cd9565b5b600182019050919050565b60008190508160005260206000209050919050565b60006020601f8301049050919050565b600082821b905092915050565b600060088302610db27fffffffffffffffffffffffffffffffffffffffffffffffffffffffffffffffff82610d75565b610dbc8683610d75565b95508019841693508086168417925050509392505050565b6000819050919050565b6000610df9610df4610def8461069b565b610dd4565b61069b565b9050919050565b6000819050919050565b610e1383610dde565b610e27610e1f82610e00565b848454610d82565b825550505050565b600090565b610e3c610e2f565b610e47818484610e0a565b505050565b5b81811015610e6b57610e60600082610e34565b600181019050610e4d565b5050565b601f821115610eb057610e8181610d50565b610e8a84610d65565b81016020851015610e99578190505b610ead610ea585610d65565b830182610e4c565b50505b505050565b600082821c905092915050565b6000610ed360001984600802610eb5565b1980831691505092915050565b6000610eec8383610ec2565b9150826002028217905092915050565b610f058261074b565b67ffffffffffffffff811115610f1e57610f1d6109ac565b5b610f288254610ca8565b610f33828285610e6f565b600060209050601f831160018114610f665760008415610f54578287015190505b610f5e8582610ee0565b865550610fc6565b601f198416610f7486610d50565b60005b82811015610f9c57848901518255600182019150602085019450602081019050610f77565b86831015610fb95784890151610fb5601f891682610ec2565b8355505b6001600288020188555050505b505050505050565b600060c082019050610fe36000830189610ba3565b610ff06020830188610ba3565b610ffd60408301876106a5565b818103606083015261100f8186610bc3565b905081810360808301526110238185610bc3565b905061103260a08301846106a5565b97965050505050505056fea264697066735822122034147b4905fc6ede14d5d58dcd058fdb83aabc22f28695631b42cf0cdde0b4e164736f6c63430008100033",
  "immutableReferences": {},
  "source": "// SPDX-License-Identifier: MIT\r\npragma solidity >=0.4.22 <0.9.0;\r\n\r\ncontract Transactions {\r\n    struct Transaction {\r\n        uint256 id;\r\n        address sender;\r\n        address receiver;\r\n        uint256 value;\r\n        string message;\r\n        string keyword;\r\n        uint256 timestamp;\r\n    }\r\n\r\n    event Transfer(\r\n        address sender,\r\n        address receiver,\r\n        uint256 value,\r\n        string message,\r\n        string keyword,\r\n        uint256 timestamp\r\n    );\r\n\r\n    uint256 transactionsCount = 0;\r\n    Transaction[] public transactionsList;\r\n\r\n    // ------------------------- Add Transaction -------------------------\r\n    function addTransaction(\r\n        address _receiver,\r\n        uint256 _value,\r\n        string memory _message,\r\n        string memory _keyword\r\n    ) public {\r\n        transactionsCount++;\r\n        transactionsList.push(\r\n            Transaction(\r\n                transactionsCount,\r\n                msg.sender,\r\n                _receiver,\r\n                _value,\r\n                _message,\r\n                _keyword,\r\n                block.timestamp\r\n            )\r\n        );\r\n\r\n        emit Transfer(\r\n            msg.sender,\r\n            _receiver,\r\n            _value,\r\n            _message,\r\n            _keyword,\r\n            block.timestamp\r\n        );\r\n    }\r\n\r\n    // ------------------------- Get All Transactions -------------------------\r\n    function allTransactionsList() public view returns (Transaction[] memory) {\r\n        return transactionsList;\r\n    }\r\n\r\n    // ------------------------- Get Transactions Count -------------------------\r\n    function totalTransactionCount() public view returns (uint256) {\r\n        return transactionsCount;\r\n    }\r\n}\r\n",
  "sourcePath": "e:\\Codes\\Blockchain\\Z-Transfer\\contracts\\Transactions.sol",
  "compiler": {
    "name": "solc",
    "version": "0.8.16+commit.07a7930e.Emscripten.clang"
  },
  "schemaVersion": "3.4.9",
  "updatedAt": "2022-11-16T20:01:28.746Z",
  "networkType": "ethereum",
  "devdoc": {
    "kind": "dev",
    "methods": {},
    "version": 1
  },
  "userdoc": {
    "kind": "user",
    "methods": {},
    "version": 1
  }
}